{
  "contractName": "MerkleVesting",
  "abi": [
    {
      "inputs": [
        {
          "internalType": "address",
          "name": "token_",
          "type": "address"
        },
        {
          "internalType": "address",
          "name": "owner",
          "type": "address"
        }
      ],
      "stateMutability": "nonpayable",
      "type": "constructor"
    },
    {
      "inputs": [],
      "name": "AlreadyWithdrawn",
      "type": "error"
    },
    {
      "inputs": [
        {
          "internalType": "uint256",
          "name": "cliff",
          "type": "uint256"
        },
        {
          "internalType": "uint256",
          "name": "timestamp",
          "type": "uint256"
        }
      ],
      "name": "CliffNotReached",
      "type": "error"
    },
    {
      "inputs": [],
      "name": "CohortDoesNotExist",
      "type": "error"
    },
    {
      "inputs": [
        {
          "internalType": "uint256",
          "name": "current",
          "type": "uint256"
        },
        {
          "internalType": "uint256",
          "name": "end",
          "type": "uint256"
        }
      ],
      "name": "DistributionEnded",
      "type": "error"
    },
    {
      "inputs": [
        {
          "internalType": "uint256",
          "name": "current",
          "type": "uint256"
        },
        {
          "internalType": "uint256",
          "name": "end",
          "type": "uint256"
        }
      ],
      "name": "DistributionOngoing",
      "type": "error"
    },
    {
      "inputs": [],
      "name": "InvalidParameters",
      "type": "error"
    },
    {
      "inputs": [],
      "name": "InvalidProof",
      "type": "error"
    },
    {
      "inputs": [],
      "name": "MerkleRootCollision",
      "type": "error"
    },
    {
      "inputs": [
        {
          "internalType": "bytes32",
          "name": "cohortId",
          "type": "bytes32"
        },
        {
          "internalType": "address",
          "name": "account",
          "type": "address"
        }
      ],
      "name": "NotInVesting",
      "type": "error"
    },
    {
      "inputs": [
        {
          "internalType": "address",
          "name": "token",
          "type": "address"
        },
        {
          "internalType": "address",
          "name": "from",
          "type": "address"
        },
        {
          "internalType": "address",
          "name": "to",
          "type": "address"
        }
      ],
      "name": "TransferFailed",
      "type": "error"
    },
    {
      "anonymous": false,
      "inputs": [
        {
          "indexed": false,
          "internalType": "bytes32",
          "name": "cohortId",
          "type": "bytes32"
        },
        {
          "indexed": false,
          "internalType": "address",
          "name": "account",
          "type": "address"
        },
        {
          "indexed": false,
          "internalType": "uint256",
          "name": "amount",
          "type": "uint256"
        }
      ],
      "name": "Claimed",
      "type": "event"
    },
    {
      "anonymous": false,
      "inputs": [
        {
          "indexed": false,
          "internalType": "bytes32",
          "name": "cohortId",
          "type": "bytes32"
        }
      ],
      "name": "CohortAdded",
      "type": "event"
    },
    {
      "anonymous": false,
      "inputs": [
        {
          "indexed": true,
          "internalType": "address",
          "name": "previousOwner",
          "type": "address"
        },
        {
          "indexed": true,
          "internalType": "address",
          "name": "newOwner",
          "type": "address"
        }
      ],
      "name": "OwnershipTransferred",
      "type": "event"
    },
    {
      "anonymous": false,
      "inputs": [
        {
          "indexed": false,
          "internalType": "address",
          "name": "account",
          "type": "address"
        },
        {
          "indexed": false,
          "internalType": "uint256",
          "name": "amount",
          "type": "uint256"
        }
      ],
      "name": "Withdrawn",
      "type": "event"
    },
    {
      "inputs": [],
      "name": "lastEndingCohort",
      "outputs": [
        {
          "internalType": "bytes32",
          "name": "",
          "type": "bytes32"
        }
      ],
      "stateMutability": "view",
      "type": "function"
    },
    {
      "inputs": [
        {
          "internalType": "bytes[]",
          "name": "data",
          "type": "bytes[]"
        }
      ],
      "name": "multicall",
      "outputs": [
        {
          "internalType": "bytes[]",
          "name": "results",
          "type": "bytes[]"
        }
      ],
      "stateMutability": "nonpayable",
      "type": "function"
    },
    {
      "inputs": [],
      "name": "owner",
      "outputs": [
        {
          "internalType": "address",
          "name": "",
          "type": "address"
        }
      ],
      "stateMutability": "view",
      "type": "function"
    },
    {
      "inputs": [],
      "name": "renounceOwnership",
      "outputs": [],
      "stateMutability": "nonpayable",
      "type": "function"
    },
    {
      "inputs": [],
      "name": "token",
      "outputs": [
        {
          "internalType": "address",
          "name": "",
          "type": "address"
        }
      ],
      "stateMutability": "view",
      "type": "function"
    },
    {
      "inputs": [
        {
          "internalType": "address",
          "name": "newOwner",
          "type": "address"
        }
      ],
      "name": "transferOwnership",
      "outputs": [],
      "stateMutability": "nonpayable",
      "type": "function"
    },
    {
      "inputs": [
        {
          "internalType": "bytes32",
          "name": "cohortId",
          "type": "bytes32"
        }
      ],
      "name": "getCohort",
      "outputs": [
        {
          "components": [
            {
              "internalType": "bytes32",
              "name": "merkleRoot",
              "type": "bytes32"
            },
            {
              "internalType": "uint64",
              "name": "distributionEnd",
              "type": "uint64"
            },
            {
              "internalType": "uint64",
              "name": "vestingEnd",
              "type": "uint64"
            },
            {
              "internalType": "uint64",
              "name": "vestingPeriod",
              "type": "uint64"
            },
            {
              "internalType": "uint64",
              "name": "cliffPeriod",
              "type": "uint64"
            }
          ],
          "internalType": "struct IMerkleVesting.CohortData",
          "name": "",
          "type": "tuple"
        }
      ],
      "stateMutability": "view",
      "type": "function"
    },
    {
      "inputs": [
        {
          "internalType": "bytes32",
          "name": "cohortId",
          "type": "bytes32"
        },
        {
          "internalType": "uint256",
          "name": "index",
          "type": "uint256"
        },
        {
          "internalType": "address",
          "name": "account",
          "type": "address"
        },
        {
          "internalType": "uint256",
          "name": "fullAmount",
          "type": "uint256"
        }
      ],
      "name": "getClaimableAmount",
      "outputs": [
        {
          "internalType": "uint256",
          "name": "",
          "type": "uint256"
        }
      ],
      "stateMutability": "view",
      "type": "function"
    },
    {
      "inputs": [
        {
          "internalType": "bytes32",
          "name": "cohortId",
          "type": "bytes32"
        },
        {
          "internalType": "address",
          "name": "account",
          "type": "address"
        }
      ],
      "name": "getClaimed",
      "outputs": [
        {
          "internalType": "uint256",
          "name": "",
          "type": "uint256"
        }
      ],
      "stateMutability": "view",
      "type": "function"
    },
    {
      "inputs": [
        {
          "internalType": "bytes32",
          "name": "cohortId",
          "type": "bytes32"
        },
        {
          "internalType": "uint256",
          "name": "index",
          "type": "uint256"
        }
      ],
      "name": "isDisabled",
      "outputs": [
        {
          "internalType": "bool",
          "name": "",
          "type": "bool"
        }
      ],
      "stateMutability": "view",
      "type": "function"
    },
    {
      "inputs": [
        {
          "internalType": "bytes32",
          "name": "cohortId",
          "type": "bytes32"
        },
        {
          "internalType": "uint256",
          "name": "index",
          "type": "uint256"
        }
      ],
      "name": "setDisabled",
      "outputs": [],
      "stateMutability": "nonpayable",
      "type": "function"
    },
    {
      "inputs": [
        {
          "internalType": "bytes32",
          "name": "merkleRoot",
          "type": "bytes32"
        },
        {
          "internalType": "uint256",
          "name": "distributionDuration",
          "type": "uint256"
        },
        {
          "internalType": "uint64",
          "name": "vestingPeriod",
          "type": "uint64"
        },
        {
          "internalType": "uint64",
          "name": "cliffPeriod",
          "type": "uint64"
        }
      ],
      "name": "addCohort",
      "outputs": [],
      "stateMutability": "nonpayable",
      "type": "function"
    },
    {
      "inputs": [
        {
          "internalType": "bytes32",
          "name": "cohortId",
          "type": "bytes32"
        },
        {
          "internalType": "uint256",
          "name": "index",
          "type": "uint256"
        },
        {
          "internalType": "address",
          "name": "account",
          "type": "address"
        },
        {
          "internalType": "uint256",
          "name": "amount",
          "type": "uint256"
        },
        {
          "internalType": "bytes32[]",
          "name": "merkleProof",
          "type": "bytes32[]"
        }
      ],
      "name": "claim",
      "outputs": [],
      "stateMutability": "nonpayable",
      "type": "function"
    },
    {
      "inputs": [
        {
          "internalType": "address",
          "name": "recipient",
          "type": "address"
        }
      ],
      "name": "withdraw",
      "outputs": [],
      "stateMutability": "nonpayable",
      "type": "function"
    }
  ],
  "bytecode": "0x60a06040523480156200001157600080fd5b5060405162001743380380620017438339810160408190526200003491620001a1565b6200003f336200005f565b6001600160a01b0382166080526200005781620000af565b5050620001d9565b600080546001600160a01b038381166001600160a01b0319831681178455604051919092169283917f8be0079c531659141344cd1fd0a4f28419497f9722a3daafe3b4186f6b6457e09190a35050565b6000546001600160a01b031633146200010f5760405162461bcd60e51b815260206004820181905260248201527f4f776e61626c653a2063616c6c6572206973206e6f7420746865206f776e657260448201526064015b60405180910390fd5b6001600160a01b038116620001765760405162461bcd60e51b815260206004820152602660248201527f4f776e61626c653a206e6577206f776e657220697320746865207a65726f206160448201526564647265737360d01b606482015260840162000106565b62000181816200005f565b50565b80516001600160a01b03811681146200019c57600080fd5b919050565b60008060408385031215620001b557600080fd5b620001c08362000184565b9150620001d06020840162000184565b90509250929050565b60805161152b620002186000396000818161032101528181610423015281816104dc015281816105640152818161079e0152610826015261152b6000f3fe608060405234801561001057600080fd5b50600436106100ea5760003560e01c8063ac9650d81161008c578063daf7ba6c11610066578063daf7ba6c14610202578063db8e75fe14610215578063f2fde38b14610309578063fc0c546a1461031c57600080fd5b8063ac9650d814610196578063be4518b2146101b6578063d2d5effc146101c957600080fd5b80637e22b75a116100c85780637e22b75a146101345780638da5cb5b14610147578063a090ebf31461016c578063a3f5ad9d1461017f57600080fd5b80634f02a73e146100ef57806351cff8d914610117578063715018a61461012c575b600080fd5b6101026100fd36600461100e565b610343565b60405190151581526020015b60405180910390f35b61012a61012536600461104c565b610392565b005b61012a6105e6565b61012a6101423660046110b2565b61061c565b6000546001600160a01b03165b6040516001600160a01b03909116815260200161010e565b61012a61017a366004611139565b6108b6565b61018860015481565b60405190815260200161010e565b6101a96101a436600461117f565b610ab0565b60405161010e919061121c565b6101886101c436600461127e565b610ba4565b6101886101d73660046112bb565b60008281526002602081815260408084206001600160a01b0386168552909201905290205492915050565b61012a61021036600461100e565b610ce5565b6102b46102233660046112e7565b6040805160a08101825260008082526020820181905291810182905260608101829052608081019190915250600090815260026020908152604091829020825160a081018452815481526001909101546001600160401b0380821693830193909352600160401b8104831693820193909352600160801b830482166060820152600160c01b90920416608082015290565b60405161010e9190600060a0820190508251825260208301516001600160401b038082166020850152806040860151166040850152806060860151166060850152806080860151166080850152505092915050565b61012a61031736600461104c565b610d5c565b6101547f000000000000000000000000000000000000000000000000000000000000000081565b6000806103526101008461132c565b9050600061036261010085611340565b6000958652600260209081526040808820948852600390940190529190942054600190911b908116149392505050565b6000546001600160a01b031633146103c55760405162461bcd60e51b81526004016103bc90611354565b60405180910390fd5b60018054600090815260026020526040902001546001600160401b031642811061040b5760405163f6f4e2b160e01b8152426004820152602481018290526044016103bc565b6040516370a0823160e01b81523060048201526000907f00000000000000000000000000000000000000000000000000000000000000006001600160a01b0316906370a0823190602401602060405180830381865afa158015610472573d6000803e3d6000fd5b505050506040513d601f19601f820116820180604052508101906104969190611389565b9050806104b657604051636507689f60e01b815260040160405180910390fd5b60405163a9059cbb60e01b81526001600160a01b038481166004830152602482018390527f0000000000000000000000000000000000000000000000000000000000000000169063a9059cbb906044016020604051808303816000875af1158015610525573d6000803e3d6000fd5b505050506040513d601f19601f8201168201806040525081019061054991906113a2565b61059f57604051633aaef15d60e21b81526001600160a01b037f000000000000000000000000000000000000000000000000000000000000000081166004830152306024830152841660448201526064016103bc565b604080516001600160a01b0385168152602081018390527f7084f5476618d8e60b11ef0d7d3f06914655adb8793e28ff7f018d4c76d505d5910160405180910390a1505050565b6000546001600160a01b031633146106105760405162461bcd60e51b81526004016103bc90611354565b61061a6000610df7565b565b600086815260026020526040902054610648576040516340f4c53360e11b815260040160405180910390fd5b600086815260026020526040902060018101546001600160401b03164281101561068e57604051631bbcd9e560e01b8152426004820152602481018290526044016103bc565b60408051602081018990526bffffffffffffffffffffffff19606089901b1691810191909152605481018690526000906074016040516020818303038152906040528051906020012090506107198585808060200260200160405190810160405280939291908181526020018383602002808284376000920191909152505086549150849050610e47565b610736576040516309bde33960e01b815260040160405180910390fd5b60006107448a8a8a8a610ba4565b6001600160a01b03891660009081526002860160205260408120805492935083929091906107739084906113c4565b909155505060405163a9059cbb60e01b81526001600160a01b038981166004830152602482018390527f0000000000000000000000000000000000000000000000000000000000000000169063a9059cbb906044016020604051808303816000875af11580156107e7573d6000803e3d6000fd5b505050506040513d601f19601f8201168201806040525081019061080b91906113a2565b61086157604051633aaef15d60e21b81526001600160a01b037f000000000000000000000000000000000000000000000000000000000000000081166004830152306024830152891660448201526064016103bc565b604080518b81526001600160a01b038a1660208201529081018290527f0508a8b4117d9a7b3d8f5895f6413e61b4f9a2df35afbfb41e78d0ecfff1843f9060600160405180910390a150505050505050505050565b6000546001600160a01b031633146108e05760405162461bcd60e51b81526004016103bc90611354565b8315806108eb575082155b806108fd57506001600160401b038216155b806109105750816001600160401b031683105b806109235750806001600160401b031683105b8061093f5750806001600160401b0316826001600160401b0316105b1561095d57604051630e52390960e41b815260040160405180910390fd5b6000848152600260205260409020541561098a57604051632334cf8960e21b815260040160405180910390fd5b600061099684426113c4565b60018054600090815260026020526040902001549091506001600160401b03168111156109c35760018590555b6000858152600260205260409020858155600101805467ffffffffffffffff19166001600160401b0383811691909117909155610a02908416426113c4565b600086815260026020908152604091829020600101805477ffffffffffffffffffffffffffffffff00000000000000001916600160401b6001600160401b039586160267ffffffffffffffff60801b191617600160801b88861602176001600160c01b0316600160c01b9487169490940293909317909255518681527f4b32a169b25b429cbe6187348df8cce740260f1c5baa6aaa8eca43e152f94395910160405180910390a15050505050565b6060816001600160401b03811115610aca57610aca6113dc565b604051908082528060200260200182016040528015610afd57816020015b6060815260200190600190039081610ae85790505b50905060005b82811015610b9d57610b6d30858584818110610b2157610b216113f2565b9050602002810190610b339190611408565b8080601f016020809104026020016040519081016040528093929190818152602001838380828437600092019190915250610e5f92505050565b828281518110610b7f57610b7f6113f2565b60200260200101819052508080610b959061144e565b915050610b03565b5092915050565b60008481526002602081815260408084206001600160a01b038716855292830190915282205460018201546001600160401b03600160401b82048116918591610bf591600160801b90041683611469565b6001850154909150600090610c1a90600160c01b90046001600160401b0316836113c4565b9050610c268a8a610343565b15610c56576040516384fa90e560e01b8152600481018b90526001600160a01b03891660248201526044016103bc565b80421015610c8057604051632f4b66b560e11b8152600481018290524260248201526044016103bc565b82421015610cd35760018501548490600160801b90046001600160401b0316610ca98442611469565b610cb3908a611480565b610cbd919061132c565b610cc79190611469565b95505050505050610cdd565b610cc78488611469565b949350505050565b6000546001600160a01b03163314610d0f5760405162461bcd60e51b81526004016103bc90611354565b6000610d1d6101008361132c565b90506000610d2d61010084611340565b600094855260026020908152604080872094875260039094019052919093208054600190921b90911790555050565b6000546001600160a01b03163314610d865760405162461bcd60e51b81526004016103bc90611354565b6001600160a01b038116610deb5760405162461bcd60e51b815260206004820152602660248201527f4f776e61626c653a206e6577206f776e657220697320746865207a65726f206160448201526564647265737360d01b60648201526084016103bc565b610df481610df7565b50565b600080546001600160a01b038381166001600160a01b0319831681178455604051919092169283917f8be0079c531659141344cd1fd0a4f28419497f9722a3daafe3b4186f6b6457e09190a35050565b600082610e548584610e84565b1490505b9392505050565b6060610e5883836040518060600160405280602781526020016114cf60279139610ef8565b600081815b8451811015610ef0576000858281518110610ea657610ea66113f2565b60200260200101519050808311610ecc5760008381526020829052604090209250610edd565b600081815260208490526040902092505b5080610ee88161144e565b915050610e89565b509392505050565b60606001600160a01b0384163b610f605760405162461bcd60e51b815260206004820152602660248201527f416464726573733a2064656c65676174652063616c6c20746f206e6f6e2d636f6044820152651b9d1c9858dd60d21b60648201526084016103bc565b600080856001600160a01b031685604051610f7b919061149f565b600060405180830381855af49150503d8060008114610fb6576040519150601f19603f3d011682016040523d82523d6000602084013e610fbb565b606091505b5091509150610fcb828286610fd5565b9695505050505050565b60608315610fe4575081610e58565b825115610ff45782518084602001fd5b8160405162461bcd60e51b81526004016103bc91906114bb565b6000806040838503121561102157600080fd5b50508035926020909101359150565b80356001600160a01b038116811461104757600080fd5b919050565b60006020828403121561105e57600080fd5b610e5882611030565b60008083601f84011261107957600080fd5b5081356001600160401b0381111561109057600080fd5b6020830191508360208260051b85010111156110ab57600080fd5b9250929050565b60008060008060008060a087890312156110cb57600080fd5b86359550602087013594506110e260408801611030565b93506060870135925060808701356001600160401b0381111561110457600080fd5b61111089828a01611067565b979a9699509497509295939492505050565b80356001600160401b038116811461104757600080fd5b6000806000806080858703121561114f57600080fd5b843593506020850135925061116660408601611122565b915061117460608601611122565b905092959194509250565b6000806020838503121561119257600080fd5b82356001600160401b038111156111a857600080fd5b6111b485828601611067565b90969095509350505050565b60005b838110156111db5781810151838201526020016111c3565b838111156111ea576000848401525b50505050565b600081518084526112088160208601602086016111c0565b601f01601f19169290920160200192915050565b6000602080830181845280855180835260408601915060408160051b870101925083870160005b8281101561127157603f1988860301845261125f8583516111f0565b94509285019290850190600101611243565b5092979650505050505050565b6000806000806080858703121561129457600080fd5b84359350602085013592506112ab60408601611030565b9396929550929360600135925050565b600080604083850312156112ce57600080fd5b823591506112de60208401611030565b90509250929050565b6000602082840312156112f957600080fd5b5035919050565b634e487b7160e01b600052601260045260246000fd5b634e487b7160e01b600052601160045260246000fd5b60008261133b5761133b611300565b500490565b60008261134f5761134f611300565b500690565b6020808252818101527f4f776e61626c653a2063616c6c6572206973206e6f7420746865206f776e6572604082015260600190565b60006020828403121561139b57600080fd5b5051919050565b6000602082840312156113b457600080fd5b81518015158114610e5857600080fd5b600082198211156113d7576113d7611316565b500190565b634e487b7160e01b600052604160045260246000fd5b634e487b7160e01b600052603260045260246000fd5b6000808335601e1984360301811261141f57600080fd5b8301803591506001600160401b0382111561143957600080fd5b6020019150368190038213156110ab57600080fd5b600060001982141561146257611462611316565b5060010190565b60008282101561147b5761147b611316565b500390565b600081600019048311821515161561149a5761149a611316565b500290565b600082516114b18184602087016111c0565b9190910192915050565b602081526000610e5860208301846111f056fe416464726573733a206c6f772d6c6576656c2064656c65676174652063616c6c206661696c6564a26469706673582212208ed260f44a361e7132a15af8497e0950b78c49ae2130ca81672d54fcff528afd64736f6c634300080c0033",
  "immutableReferences": {
    "3570": [
      {
        "length": 32,
        "start": 801
      },
      {
        "length": 32,
        "start": 1059
      },
      {
        "length": 32,
        "start": 1244
      },
      {
        "length": 32,
        "start": 1380
      },
      {
        "length": 32,
        "start": 1950
      },
      {
        "length": 32,
        "start": 2086
      }
    ]
  },
  "source": "// SPDX-License-Identifier: GPL-3.0-or-later\npragma solidity 0.8.12;\n\nimport \"./interfaces/IMerkleVesting.sol\";\nimport \"@openzeppelin/contracts/access/Ownable.sol\";\nimport \"@openzeppelin/contracts/token/ERC20/IERC20.sol\";\nimport \"@openzeppelin/contracts/utils/cryptography/MerkleProof.sol\";\nimport \"@openzeppelin/contracts/utils/Multicall.sol\";\n\ncontract MerkleVesting is IMerkleVesting, Multicall, Ownable {\n    address public immutable token;\n    bytes32 public lastEndingCohort;\n\n    mapping(bytes32 => Cohort) internal cohorts;\n\n    constructor(address token_, address owner) {\n        token = token_;\n        transferOwnership(owner);\n    }\n\n    function getCohort(bytes32 cohortId) external view returns (CohortData memory) {\n        return cohorts[cohortId].data;\n    }\n\n    function getClaimableAmount(\n        bytes32 cohortId,\n        uint256 index,\n        address account,\n        uint256 fullAmount\n    ) public view returns (uint256) {\n        Cohort storage cohort = cohorts[cohortId];\n        uint256 claimedSoFar = cohort.claims[account];\n        uint256 vestingEnd = cohort.data.vestingEnd;\n        uint256 vestingStart = vestingEnd - cohort.data.vestingPeriod;\n        uint256 cliff = vestingStart + cohort.data.cliffPeriod;\n        if (isDisabled(cohortId, index)) revert NotInVesting(cohortId, account);\n        if (block.timestamp < cliff) revert CliffNotReached(cliff, block.timestamp);\n        else if (block.timestamp < vestingEnd)\n            return (fullAmount * (block.timestamp - vestingStart)) / cohort.data.vestingPeriod - claimedSoFar;\n        else return fullAmount - claimedSoFar;\n    }\n\n    function getClaimed(bytes32 cohortId, address account) public view returns (uint256) {\n        return cohorts[cohortId].claims[account];\n    }\n\n    function isDisabled(bytes32 cohortId, uint256 index) public view returns (bool) {\n        uint256 wordIndex = index / 256;\n        uint256 bitIndex = index % 256;\n        uint256 word = cohorts[cohortId].disabledState[wordIndex];\n        uint256 mask = (1 << bitIndex);\n        return word & mask == mask;\n    }\n\n    function setDisabled(bytes32 cohortId, uint256 index) external onlyOwner {\n        uint256 wordIndex = index / 256;\n        uint256 bitIndex = index % 256;\n        cohorts[cohortId].disabledState[wordIndex] = cohorts[cohortId].disabledState[wordIndex] | (1 << bitIndex);\n    }\n\n    function addCohort(\n        bytes32 merkleRoot,\n        uint256 distributionDuration,\n        uint64 vestingPeriod,\n        uint64 cliffPeriod\n    ) external onlyOwner {\n        if (\n            merkleRoot == bytes32(0) ||\n            distributionDuration == 0 ||\n            vestingPeriod == 0 ||\n            distributionDuration < vestingPeriod ||\n            distributionDuration < cliffPeriod ||\n            vestingPeriod < cliffPeriod\n        ) revert InvalidParameters();\n        if (cohorts[merkleRoot].data.merkleRoot != bytes32(0)) revert MerkleRootCollision();\n\n        uint256 distributionEnd = block.timestamp + distributionDuration;\n        if (distributionEnd > cohorts[lastEndingCohort].data.distributionEnd) lastEndingCohort = merkleRoot;\n\n        cohorts[merkleRoot].data.merkleRoot = merkleRoot;\n        cohorts[merkleRoot].data.distributionEnd = uint64(distributionEnd);\n        cohorts[merkleRoot].data.vestingEnd = uint64(block.timestamp + vestingPeriod);\n        cohorts[merkleRoot].data.vestingPeriod = vestingPeriod;\n        cohorts[merkleRoot].data.cliffPeriod = cliffPeriod;\n\n        emit CohortAdded(merkleRoot);\n    }\n\n    function claim(\n        bytes32 cohortId,\n        uint256 index,\n        address account,\n        uint256 amount,\n        bytes32[] calldata merkleProof\n    ) external {\n        if (cohorts[cohortId].data.merkleRoot == bytes32(0)) revert CohortDoesNotExist();\n        Cohort storage cohort = cohorts[cohortId];\n        uint256 distributionEndLocal = cohort.data.distributionEnd;\n        if (block.timestamp > distributionEndLocal) revert DistributionEnded(block.timestamp, distributionEndLocal);\n\n        // Verify the merkle proof.\n        bytes32 node = keccak256(abi.encodePacked(index, account, amount));\n        if (!MerkleProof.verify(merkleProof, cohort.data.merkleRoot, node)) revert InvalidProof();\n\n        // Calculate the claimable amount and update the claimed amount on storage.\n        uint256 claimableAmount = getClaimableAmount(cohortId, index, account, amount);\n        cohort.claims[account] += claimableAmount;\n\n        // Send the token.\n        if (!IERC20(token).transfer(account, claimableAmount)) revert TransferFailed(token, address(this), account);\n\n        emit Claimed(cohortId, account, claimableAmount);\n    }\n\n    function withdraw(address recipient) external onlyOwner {\n        uint256 distributionEndLocal = cohorts[lastEndingCohort].data.distributionEnd;\n        if (block.timestamp <= distributionEndLocal) revert DistributionOngoing(block.timestamp, distributionEndLocal);\n        uint256 balance = IERC20(token).balanceOf(address(this));\n        if (balance == 0) revert AlreadyWithdrawn();\n        if (!IERC20(token).transfer(recipient, balance)) revert TransferFailed(token, address(this), recipient);\n        emit Withdrawn(recipient, balance);\n    }\n}\n",
  "sourcePath": "/home/kovjonas/work/zgen/token-xyz-contracts/contracts/features/deployables/MerkleVesting.sol",
  "compiler": {
    "name": "solc",
    "version": "0.8.12+commit.f00d7308.Emscripten.clang"
  },
  "schemaVersion": "3.4.5",
  "updatedAt": "2022-03-04T12:12:50.621Z",
  "devdoc": {
    "errors": {
      "CliffNotReached(uint256,uint256)": [
        {
          "params": {
            "cliff": "The time when the cliff period ends.",
            "timestamp": "The current timestamp."
          }
        }
      ],
      "DistributionEnded(uint256,uint256)": [
        {
          "params": {
            "current": "The current timestamp.",
            "end": "The time when the distribution ended."
          }
        }
      ],
      "DistributionOngoing(uint256,uint256)": [
        {
          "params": {
            "current": "The current timestamp.",
            "end": "The time when the distribution ends."
          }
        }
      ],
      "NotInVesting(bytes32,address)": [
        {
          "params": {
            "account": "The address that does not satisfy the requirements.",
            "cohortId": "The Merkle root of the cohort."
          }
        }
      ],
      "TransferFailed(address,address,address)": [
        {
          "params": {
            "from": "The sender of the token.",
            "to": "The recipient of the token.",
            "token": "The address of token attempted to be transferred."
          }
        }
      ]
    },
    "kind": "dev",
    "methods": {
      "addCohort(bytes32,uint256,uint64,uint64)": {
        "params": {
          "cliffPeriod": "The length of the cliff period in seconds.",
          "distributionDuration": "The length of the token distribtion period in seconds.",
          "merkleRoot": "The Merkle root of the cohort. It will also serve as the cohort's ID.",
          "vestingPeriod": "The length of the vesting period of the tokens in seconds."
        }
      },
      "claim(bytes32,uint256,address,uint256,bytes32[])": {
        "params": {
          "account": "A value from the generated input list.",
          "amount": "A value from the generated input list (so the full amount).",
          "cohortId": "The Merkle root of the cohort.",
          "index": "A value from the generated input list.",
          "merkleProof": "A an array of values from the generated input list."
        }
      },
      "getClaimableAmount(bytes32,uint256,address,uint256)": {
        "params": {
          "account": "The address of the account to query.",
          "cohortId": "The Merkle root of the cohort.",
          "fullAmount": "The full amount of funds the account can claim.",
          "index": "A value from the generated input list."
        }
      },
      "getClaimed(bytes32,address)": {
        "params": {
          "account": "The address of the account to query.",
          "cohortId": "The Merkle root of the cohort."
        }
      },
      "getCohort(bytes32)": {
        "params": {
          "cohortId": "The Merkle root of the cohort."
        }
      },
      "isDisabled(bytes32,uint256)": {
        "params": {
          "cohortId": "The Merkle root of the cohort.",
          "index": "A value from the generated input list."
        }
      },
      "multicall(bytes[])": {
        "details": "Receives and executes a batch of function calls on this contract."
      },
      "owner()": {
        "details": "Returns the address of the current owner."
      },
      "renounceOwnership()": {
        "details": "Leaves the contract without owner. It will not be possible to call `onlyOwner` functions anymore. Can only be called by the current owner. NOTE: Renouncing ownership will leave the contract without an owner, thereby removing any functionality that is only available to the owner."
      },
      "setDisabled(bytes32,uint256)": {
        "params": {
          "cohortId": "The Merkle root of the cohort.",
          "index": "A value from the generated input list."
        }
      },
      "transferOwnership(address)": {
        "details": "Transfers ownership of the contract to a new account (`newOwner`). Can only be called by the current owner."
      },
      "withdraw(address)": {
        "params": {
          "recipient": "The address receiving the tokens."
        }
      }
    },
    "version": 1
  },
  "userdoc": {
    "errors": {
      "AlreadyWithdrawn()": [
        {
          "notice": "Error thrown when there's nothing to withdraw."
        }
      ],
      "CliffNotReached(uint256,uint256)": [
        {
          "notice": "Error thrown when the cliff period is not over yet."
        }
      ],
      "CohortDoesNotExist()": [
        {
          "notice": "Error thrown when a cohort with the provided id does not exist."
        }
      ],
      "DistributionEnded(uint256,uint256)": [
        {
          "notice": "Error thrown when the distribution period ended."
        }
      ],
      "DistributionOngoing(uint256,uint256)": [
        {
          "notice": "Error thrown when the distribution period did not end yet."
        }
      ],
      "InvalidParameters()": [
        {
          "notice": "Error thrown when a function receives invalid parameters."
        }
      ],
      "InvalidProof()": [
        {
          "notice": "Error thrown when the Merkle proof is invalid."
        }
      ],
      "MerkleRootCollision()": [
        {
          "notice": "Error thrown when a cohort with an already existing merkle tree is attempted to be added."
        }
      ],
      "NotInVesting(bytes32,address)": [
        {
          "notice": "Error thrown when the input address has been excluded from the vesting."
        }
      ],
      "TransferFailed(address,address,address)": [
        {
          "notice": "Error thrown when a transfer failed."
        }
      ]
    },
    "events": {
      "Claimed(bytes32,address,uint256)": {
        "notice": "This event is triggered whenever a call to #claim succeeds."
      },
      "CohortAdded(bytes32)": {
        "notice": "This event is triggered whenever a call to #addCohort succeeds."
      },
      "Withdrawn(address,uint256)": {
        "notice": "This event is triggered whenever a call to #withdraw succeeds."
      }
    },
    "kind": "user",
    "methods": {
      "addCohort(bytes32,uint256,uint64,uint64)": {
        "notice": "Allows the owner to add a new cohort."
      },
      "claim(bytes32,uint256,address,uint256,bytes32[])": {
        "notice": "Claim the given amount of the token to the given address. Reverts if the inputs are invalid."
      },
      "getClaimableAmount(bytes32,uint256,address,uint256)": {
        "notice": "Returns the amount of funds an account can claim at the moment."
      },
      "getClaimed(bytes32,address)": {
        "notice": "Returns the amount of funds an account has claimed."
      },
      "getCohort(bytes32)": {
        "notice": "Returns the parameters of a specific cohort."
      },
      "isDisabled(bytes32,uint256)": {
        "notice": "Check if the address in a cohort at the index is excluded from the vesting."
      },
      "lastEndingCohort()": {
        "notice": "Returns the id/Merkle root of the cohort ending at the latest."
      },
      "setDisabled(bytes32,uint256)": {
        "notice": "Exclude the address in a cohort at the index from the vesting."
      },
      "token()": {
        "notice": "Returns the address of the token distributed by this contract."
      },
      "withdraw(address)": {
        "notice": "Allows the owner to reclaim the tokens after the distribution has ended."
      }
    },
    "version": 1
  }
}